:030000000209767C
:0C097600787FE4F6D8FD7581830209BD8E
:100C27003F065B4F666D7D077F6F777C395E797115
:100C37000040761E7038375C733E783D6750376EDC
:100C4700BF86DBCFE6EDFD87FFEF46010204081004
:100C570020408000010200030000000400000000A3
:030C67000000008A
:100CEB000121000854060606060606060601400109
:100CFB0008421A1A1A1A1A1A1A1A08350F0F0F0F56
:100D0B000F0F0F0F014C00085C1120112011201147
:0E0D1B0000082D0102030405060708013D0033
:100B9D00E541C3940A400AE54175F00A84F52480C5
:100BAD0003752410E54175F00A8485F0257526112D
:100BBD00E52C75F00A84F527E52C75F00A8485F08F
:100BCD0028E52275F00A84F52AE52275F00A848558
:060BDD00F02B7529112226
:100C6A007B007A0079097510037F02120CACE50942
:100C7A00C4540775F00AA4FFE509540F2FF522E5BD
:100C8A000AC4540775F00AA4FFE50A540F2FF52C7D
:100C9A00E50BC4540375F00AA4FFE50B540F2FF5B6
:010CAA004108
:010CAB002226
:100B5000E52275F00A84C454F0FFE52275F00A849A
:100B6000E5F02FF509E52C75F00A84C454F0FFE593
:100B70002C75F00A84E5F02FF50AE54175F00A843A
:100B8000C454F0FFE54175F00A84E5F02FF50B7BC6
:0D0B9000007A0079097510037F02020D59EB
:040F04007F3CDFFE51
:010F080022C6
:100A8600AE4B7580F0120F04E58054F0F54B75807F
:100A96000F120F04E580540F424B634BFFEE654B7C
:100AA600704CAE3F854B3FE53F6040C2D5EE7004CB
:100AB600D2D58012EEB53F0E054AE54AC3941440DE
:100AC60005754A12D2D530D525E53FC4540F900C92
:100AD6005A93FE6019E53F540F93FF6011EE25E02F
:100AE60025E0FEEF2E240CF53E8003E4F54A7580E2
:010AF600FF00
:010AF70022DC
:100EB600E4FEEF25E0FF92C0D2C3C2C30EBE08F225
:010EC6002209
:100D8400E553900C5293F4FF120EB674242553F8D5
:100D9400E6900C2793FF120EB6D2CCC2CC0553E5D5
:0A0DA40053C394084003E4F5532202
:03000B00020DD70C
:100DD700C0E0C083C082C0D075D000C000C006C0CC
:100DE70007120D84D201D007D006D000D0D0D08210
:050DF700D083D0E032C2
:070ED400D291120EDBD29057
:040EDB007F05DFFEB2
:010EDF0022F0
:0D0EC700120ED4C291120EDBC290020EDB9F
:0A0EE000C291120ED6D291020EDB71
:0A0EEA00C291120ED6C290020EDB78
:080EF400120ED4C290020EDBC5
:0A0E8A00AC07120EC77FA2120E1E65
:0C0E9400120ED4A29192D5C290020EDB87
:020E1E00AE071D
:100E20007D08EE30E704D2918002C291EE25E0FE0B
:0A0E3000120ED6C290120EDBDDE8B0
:010E3A002295
:100E3B007D08D291D290120EDBEE25E0FE309101AF
:0A0E4B000EC290120EDBDDECAF06C4
:010E5500227A
:100D5900120E8A20D522AF04120E1E120E9420D52F
:100D690017120AF8FF120E1E740129F9E43AFA1251
:0B0D79000E9420D503D510E9020EE017
:100CAC00120E8A20D536AF04120E1E120E9420D5C9
:100CBC002B120EC77FA3120E1E120E9420D51D12DE
:100CCC000E3BEF120B3E740129F9E43AFAE510647D
:0F0CDC00016003120EEAD510E6120EF4020EE0CC
:100A0200E4F593F594F591F592F595F596F5B1F532
:100A1200B2F5B3F5B4F5C9F5CAF5CBF5CCF5E1F508
:100A2200E2F553758E80758CD4758ACDD2A9D28C9D
:100A3200D2AF7F0878247410F608DFFC7F08120C0E
:100A42006AD2D5E522C3943C4002D2D5E52CC394A8
:100A52003C4002D2D5E541C394184002D2D530D5EC
:100A62000C752227752C2775410C120B50120B9D09
:100A7200752611752911E4F54DF53EF53FF54BF557
:030A82004AF5230F
:010A8500224E
:100EA000120AF86010F599D2002000FD740129F9AA
:060EB000E43AFA80EB2297
:080EFC008F99D2002000FD22B5
:100E5600AD07AC06538EEF538EF7438E048CD6AF98
:0A0E6600058FD753AFFB438E102217
:100BE300BF020C438E017FE87EFF120E56801BC2AC
:100BF3008E538EFE438E405389BF5389CF758DFF2D
:100C0300758BE8C2AB538FFDD28EE598543F4440B9
:100C1300F598D2ACD29C53A23F43A280C200E4F524
:040C23004FF54E2219
:03002300020D2AA1
:100D2A00C0E0C0D075D000C000309815C298746475
:100D3A00254EF8A699054EE54EC394204003754EFC
:0F0D4A0000309904C299C200D000D0D0D0E0325E
:100DAE00E4F593F594F591F592F595F596F5B1F583
:100DBE00B2F5B3F5B4F5C9F5CAF5CBF5CCF5E1F559
:090DCE00E27F01120BE3D2AF2217
:060DFC008B098A0A890B35
:100E0200E4FFAB09AA0AA90B8F82758300120B11AA
:0B0E1200FE74242FF8A6060FBF08E7AF
:010E1D0022B2
:100E7000E4FF742D2FF8E6FE74542FF8E66E60033D
:090E80007F00220FBF08EB7F0187
:010E89002246
:10080000E4F508120DAE120A02E4F551F552E54F77
:10081000654E60172000147464254FF8E6F508054E
:100820004FE54FC394204003E4F54F3001E0C2018F
:100830000552E55270020551C394C8E55194004039
:1008400036E4F551F552E53D14601314601824C0E8
:10085000601C244270217B007A00795C80167B004A
:100860007A007942800E7B007A00793580067B0021
:100870007A00792D120DFC0523E523C3943240063E
:10088000E4F523120A86E521B40818E4F521120ED6
:1008900070EF6007753D017F748005753D027F66CE
:1008A000120EFCE508F4607CE53D64426026E50834
:1008B000C39400401FE508D394095018E540B401E3
:1008C00005E4F540805BE4F53D74542521F8A60865
:1008D0000521804DE508B44216753D42E4F550749B
:1008E0002D2550F876110550E550B408F28032E518
:1008F0003D6442702CE508D394424025E508D3942A
:100900004C501EE50824BDFFAE4C054C742D2EF84E
:10091000A607E54CB4080AE4F54C7F72120EFCF50C
:100920003D7508FFE53E700302080EB41B16753DC9
:1009300042E4F550742D2550F876110550E550B479
:1009400008F2802CE53DB44227E53EC394114020D7
:10095000E53ED3941A5019E53E24EFFFAE4C054C0A
:10096000742D2EF8A607E54CB40805E4F54CF53DCA
:06097000E4F53E02080E52
:10098200020800E493A3F8E493A34003F68001F283
:1009920008DFF48029E493A3F85407240CC8C33376
:1009A200C4540F4420C8834004F456800146F6DF45
:1009B200E4800B0102040810204080900CEBE47EDE
:1009C200019360BCA3FF543F30E509541FFEE4933A
:1009D200A360010ECF54C025E060A840B8E493A301
:1009E200FAE493A3F8E493A3C8C582C8CAC583CA2C
:1009F200F0A3C8C582C8CAC583CADFE9DEE780BEE4
:010D290000C9
:100AF800BB010689828A83E0225002E722BBFE02FC
:090B0800E32289828A83E493222E
:100B1100BB010CE58229F582E5833AF583E0225099
:100B210006E92582F8E622BBFE06E92582F8E222E3
:0D0B3100E58229F582E5833AF583E49322FD
:100B3E00BB010689828A83F0225002F722BBFE0196
:020B4E00F32290
:00000001FF
