:030000000208E211
:0C08E200787FE4F6D8FD758171020929C9
:100B93003F065B4F666D7D077F6F777C395E7971AA
:100BA3000040761E7038375C733E783D6750376E71
:100BB300BF86DBCFE6EDFD87FFEF46010204081099
:100BC3002040800001020003000000040000000038
:030BD3000000001F
:100D6D00012100013801083A1A1A1A1A1A1A1A1A08
:0D0D7D00082D0F0F0F0F0F0F0F0F01350086
:100B0900E539C3940A400AE53975F00A84F5248069
:100B190003752410E53975F00A8485F025752611C9
:100B2900E52C75F00A84F527E52C75F00A8485F023
:100B390028E52275F00A84F52AE52275F00A8485EC
:060B4900F02B75291122BA
:100BD6007B007A0079097510037F02120C18E5096B
:100BE600C4540775F00AA4FFE509540F2FF522E552
:100BF6000AC4540775F00AA4FFE50A540F2FF52C12
:100C0600E50BC4540375F00AA4FFE50B540F2FF54A
:010C160039A4
:010C170022BA
:100ABC00E52275F00A84C454F0FFE52275F00A842F
:100ACC00E5F02FF509E52C75F00A84C454F0FFE528
:100ADC002C75F00A84E5F02FF50AE53975F00A84D7
:100AEC00C454F0FFE53975F00A84E5F02FF50B7B63
:0D0AFC00007A0079097510037F02020C8654
:040E5D007F3CDFFEF9
:010E6100226E
:1009F200AE437580F0120E5DE58054F0F5437580CC
:100A02000F120E5DE580540F42436343FFEE6543D0
:100A1200704CAE37854337E5376040C2D5EE70047F
:100A2200D2D58012EEB5370E0542E542C39414408A
:100A320005754212D2D530D525E537C4540F900B37
:100A4200C693FE6019E537540F93FF6011EE25E05F
:100A520025E0FEEF2E240CF5368003E4F542758086
:010A6200FF94
:010A63002270
:100DF300E4FEEF25E0FF92C0D2C3C2C30EBE08F2E9
:010E030022CC
:100CB100E549900BBE93F4FF120DF374242549F816
:100CC100E6900B9393FF120DF3D2CCC2CC0549E50C
:0A0CD10049C394084003E4F54922EA
:03000B00020D04DF
:100D0400C0E0C083C082C0D075D000C000C006C09F
:100D140007120CB1D201D007D006D000D0D0D082B7
:050D2400D083D0E03295
:070E2200D291120E29D290BB
:040E29007F05DFFE64
:010E2D0022A2
:0D0E1500120E22C291120E29C290020E2967
:0A0E3900C291120E24D291020E297C
:0A0E4300C291120E24C290020E2983
:080E4D00120E22C290020E29D0
:0A0DDD00AC07120E157FA2120D8B59
:0C0DE700120E22A29192D5C290020E2999
:020D8B00AE07B1
:100D8D007D08EE30E704D2918002C291EE25E0FE9F
:0A0D9D00120E24C290120E29DDE8A8
:010DA7002229
:100DA8007D08D291D290120E29EE25E0FE309101F5
:0A0DB8000EC290120E29DDECAF060A
:010DC200220E
:100C8600120DDD20D522AF04120D8B120DE720D5F3
:100C960017120A64FF120D8B740129F9E43AFA124D
:0B0CA6000DE720D503D510E9020E3940
:100C1800120DDD20D536AF04120D8B120DE720D54D
:100C28002B120E157FA3120D8B120DE720D51D1266
:100C38000DA8EF120AAA740129F9E43AFAE510643A
:0F0C4800016003120E43D510E6120E4D020E3955
:10096E00E4F593F594F591F592F595F596F5B1F5C7
:10097E00B2F5B3F5B4F5C9F5CAF5CBF5CCF5E1F59D
:10098E00E2F549758E80758CD4758ACDD2A9D28C3C
:10099E00D2AF7F0878247410F608DFFC7F08120BA4
:1009AE00D6D2D5E522C3943C4002D2D5E52CC394D1
:1009BE003C4002D2D5E539C394184002D2D530D589
:1009CE000C752227752C2775390C120ABC120B09CF
:1009DE00752611752911E4F544F536F537F543F50D
:0309EE0042F523AC
:0109F10022E3
:060D29008B098A0A890B08
:100D2F00E4FFAB09AA0AA90B8F82758300120A7D13
:0B0D3F00F599D2002000FD0FBF08E76F
:010D4A002286
:080E55008F99D2002000FD225C
:100DC300AD07AC06538EEF538EF7438E048CD6AF2C
:0A0DD300058FD753AFFB438E1022AB
:100B4F00BF020C438E017FE87EFF120DC3801BC2D4
:100B5F008E538EFE438E405389BF5389CF758DFFC1
:100B6F00758BE8C2AB538FFDD28EE598543F44404E
:100B7F00F598D2ACD29C53A23F43A280C200E4F5B9
:040B8F0046F54522C0
:03002300020C5775
:100C5700C0E0C0D075D000C000309815C29874525B
:100C67002545F8A6990545E545C3942040037545F4
:0F0C770000309904C299C200D000D0D0D0E03232
:100CDB00E4F593F594F591F592F595F596F5B1F557
:100CEB00B2F5B3F5B4F5C9F5CAF5CBF5CCF5E1F52D
:090CFB00E27F01120B4FD2AF227F
:0A0E2E007F0878247411F608DFFC39
:010E38002297
:060D4B008B098A0A890BE6
:100D5100E4FFAB09AA0AA90B8F82758300120A7DF1
:0B0D6100FE74242FF8A6060FBF08E761
:010D6C002264
:100E0400E4F5217F08784A7411F608DFFCE4F55212
:010E140022BB
:10080000E4F508120CDB12096E120E04E54665458C
:10081000601720001474522546F8E6F5080546E5F1
:1008200046C394204003E4F5463001E0C201054888
:10083000E54870020547C394C8E5479400402AE4A0
:10084000F547F548E53514600F146014240270195B
:100850007B007A00794A800E7B007A00793A800624
:100860007B007A00792D120D4B0523E523C39432CA
:100870004006E4F5231209F2E5366049E5357022B9
:10088000E536C39411401BE536D3941A5014E5366F
:1008900075F01184AFF0AE210521744A2EF8A60739
:1008A0008020E536B41B10E521B408167B007A00E1
:1008B000794A120D29800BE536B41C06E4F5351291
:1008C0000E04E4F536E508700302080CB4740575EF
:1008D00035018008E508B46603753502E4F50802C1
:0208E000080C02
:1008EE00020800E493A3F8E493A34003F68001F218
:1008FE0008DFF48029E493A3F85407240CC8C3330B
:10090E00C4540F4420C8834004F456800146F6DFD9
:10091E00E4800B0102040810204080900D6DE47EEF
:10092E00019360BCA3FF543F30E509541FFEE493CE
:10093E00A360010ECF54C025E060A840B8E493A395
:10094E00FAE493A3F8E493A3C8C582C8CAC583CAC0
:10095E00F0A3C8C582C8CAC583CADFE9DEE780BE78
:010D8A000068
:100A6400BB010689828A83E0225002E722BBFE0290
:090A7400E32289828A83E49322C3
:100A7D00BB010CE58229F582E5833AF583E022502E
:100A8D0006E92582F8E622BBFE06E92582F8E22278
:0D0A9D00E58229F582E5833AF583E4932292
:100AAA00BB010689828A83F0225002F722BBFE012B
:020ABA00F32225
:00000001FF
